{
  "_format": "hh-sol-artifact-1",
  "contractName": "CrowdFunding",
  "sourceName": "contracts/CrowdFunding.sol",
  "abi": [
    {
      "inputs": [
        {
          "internalType": "uint256",
          "name": "",
          "type": "uint256"
        }
      ],
      "name": "campaigns",
      "outputs": [
        {
          "internalType": "address",
          "name": "owner",
          "type": "address"
        },
        {
          "internalType": "string",
          "name": "title",
          "type": "string"
        },
        {
          "internalType": "string",
          "name": "description",
          "type": "string"
        },
        {
          "internalType": "uint256",
          "name": "target",
          "type": "uint256"
        },
        {
          "internalType": "uint256",
          "name": "deadline",
          "type": "uint256"
        },
        {
          "internalType": "uint256",
          "name": "amountCollected",
          "type": "uint256"
        }
      ],
      "stateMutability": "view",
      "type": "function"
    },
    {
      "inputs": [
        {
          "internalType": "address",
          "name": "_owner",
          "type": "address"
        },
        {
          "internalType": "string",
          "name": "_title",
          "type": "string"
        },
        {
          "internalType": "string",
          "name": "_descriptions",
          "type": "string"
        },
        {
          "internalType": "uint256",
          "name": "_target",
          "type": "uint256"
        },
        {
          "internalType": "uint256",
          "name": "_deadline",
          "type": "uint256"
        }
      ],
      "name": "createCampaign",
      "outputs": [
        {
          "internalType": "uint256",
          "name": "",
          "type": "uint256"
        }
      ],
      "stateMutability": "nonpayable",
      "type": "function"
    },
    {
      "inputs": [
        {
          "internalType": "uint256",
          "name": "_id",
          "type": "uint256"
        }
      ],
      "name": "donateToCampaign",
      "outputs": [],
      "stateMutability": "payable",
      "type": "function"
    },
    {
      "inputs": [
        {
          "internalType": "uint256",
          "name": "_id",
          "type": "uint256"
        }
      ],
      "name": "getDonators",
      "outputs": [
        {
          "internalType": "address[]",
          "name": "",
          "type": "address[]"
        },
        {
          "internalType": "uint256[]",
          "name": "",
          "type": "uint256[]"
        }
      ],
      "stateMutability": "view",
      "type": "function"
    },
    {
      "inputs": [],
      "name": "numberOfCampaigns",
      "outputs": [
        {
          "internalType": "uint256",
          "name": "",
          "type": "uint256"
        }
      ],
      "stateMutability": "view",
      "type": "function"
    }
  ],
  "bytecode": "0x6080604052600060015534801561001557600080fd5b506110b1806100256000396000f3fe60806040526004361061004a5760003560e01c8063075843c31461004f57806307ca140d1461008c5780630fa91fa9146100b7578063141961bc146100f557806342a4fda814610137575b600080fd5b34801561005b57600080fd5b506100766004803603810190610071919061082c565b610153565b60405161008391906108ee565b60405180910390f35b34801561009857600080fd5b506100a1610267565b6040516100ae91906108ee565b60405180910390f35b3480156100c357600080fd5b506100de60048036038101906100d99190610909565b61026d565b6040516100ec929190610ab2565b60405180910390f35b34801561010157600080fd5b5061011c60048036038101906101179190610909565b610372565b60405161012e96959493929190610b77565b60405180910390f35b610151600480360381019061014c9190610909565b6104de565b005b60008060008060015481526020019081526020016000209050428160040154106101b2576040517f08c379a00000000000000000000000000000000000000000000000000000000081526004016101a990610c58565b60405180910390fd5b868160000160006101000a81548173ffffffffffffffffffffffffffffffffffffffff021916908373ffffffffffffffffffffffffffffffffffffffff160217905550858160010190816102069190610e84565b50848160020190816102189190610e84565b50838160030181905550828160040181905550600081600501819055506001600081548092919061024890610f85565b91905055506001805461025b9190610fcd565b91505095945050505050565b60015481565b6060806000806000858152602001908152602001600020905080600601816007018180548060200260200160405190810160405280929190818152602001828054801561030f57602002820191906000526020600020905b8160009054906101000a900473ffffffffffffffffffffffffffffffffffffffff1673ffffffffffffffffffffffffffffffffffffffff16815260200190600101908083116102c5575b505050505091508080548060200260200160405190810160405280929190818152602001828054801561036157602002820191906000526020600020905b81548152602001906001019080831161034d575b505050505090509250925050915091565b60006020528060005260406000206000915090508060000160009054906101000a900473ffffffffffffffffffffffffffffffffffffffff16908060010180546103bb90610ca7565b80601f01602080910402602001604051908101604052809291908181526020018280546103e790610ca7565b80156104345780601f1061040957610100808354040283529160200191610434565b820191906000526020600020905b81548152906001019060200180831161041757829003601f168201915b50505050509080600201805461044990610ca7565b80601f016020809104026020016040519081016040528092919081815260200182805461047590610ca7565b80156104c25780601f10610497576101008083540402835291602001916104c2565b820191906000526020600020905b8154815290600101906020018083116104a557829003601f168201915b5050505050908060030154908060040154908060050154905086565b60003490506000806000848152602001908152602001600020905080600601339080600181540180825580915050600190039060005260206000200160009091909190916101000a81548173ffffffffffffffffffffffffffffffffffffffff021916908373ffffffffffffffffffffffffffffffffffffffff1602179055508060070182908060018154018082558091505060019003906000526020600020016000909190919091505560008160000160009054906101000a900473ffffffffffffffffffffffffffffffffffffffff1673ffffffffffffffffffffffffffffffffffffffff16836040516105d390611032565b60006040518083038185875af1925050503d8060008114610610576040519150601f19603f3d011682016040523d82523d6000602084013e610615565b606091505b5050905080156106385782826005015461062f9190611047565b82600501819055505b50505050565b6000604051905090565b600080fd5b600080fd5b600073ffffffffffffffffffffffffffffffffffffffff82169050919050565b600061067d82610652565b9050919050565b61068d81610672565b811461069857600080fd5b50565b6000813590506106aa81610684565b92915050565b600080fd5b600080fd5b6000601f19601f8301169050919050565b7f4e487b7100000000000000000000000000000000000000000000000000000000600052604160045260246000fd5b610703826106ba565b810181811067ffffffffffffffff82111715610722576107216106cb565b5b80604052505050565b600061073561063e565b905061074182826106fa565b919050565b600067ffffffffffffffff821115610761576107606106cb565b5b61076a826106ba565b9050602081019050919050565b82818337600083830152505050565b600061079961079484610746565b61072b565b9050828152602081018484840111156107b5576107b46106b5565b5b6107c0848285610777565b509392505050565b600082601f8301126107dd576107dc6106b0565b5b81356107ed848260208601610786565b91505092915050565b6000819050919050565b610809816107f6565b811461081457600080fd5b50565b60008135905061082681610800565b92915050565b600080600080600060a0868803121561084857610847610648565b5b60006108568882890161069b565b955050602086013567ffffffffffffffff8111156108775761087661064d565b5b610883888289016107c8565b945050604086013567ffffffffffffffff8111156108a4576108a361064d565b5b6108b0888289016107c8565b93505060606108c188828901610817565b92505060806108d288828901610817565b9150509295509295909350565b6108e8816107f6565b82525050565b600060208201905061090360008301846108df565b92915050565b60006020828403121561091f5761091e610648565b5b600061092d84828501610817565b91505092915050565b600081519050919050565b600082825260208201905092915050565b6000819050602082019050919050565b61096b81610672565b82525050565b600061097d8383610962565b60208301905092915050565b6000602082019050919050565b60006109a182610936565b6109ab8185610941565b93506109b683610952565b8060005b838110156109e75781516109ce8882610971565b97506109d983610989565b9250506001810190506109ba565b5085935050505092915050565b600081519050919050565b600082825260208201905092915050565b6000819050602082019050919050565b610a29816107f6565b82525050565b6000610a3b8383610a20565b60208301905092915050565b6000602082019050919050565b6000610a5f826109f4565b610a6981856109ff565b9350610a7483610a10565b8060005b83811015610aa5578151610a8c8882610a2f565b9750610a9783610a47565b925050600181019050610a78565b5085935050505092915050565b60006040820190508181036000830152610acc8185610996565b90508181036020830152610ae08184610a54565b90509392505050565b610af281610672565b82525050565b600081519050919050565b600082825260208201905092915050565b60005b83811015610b32578082015181840152602081019050610b17565b60008484015250505050565b6000610b4982610af8565b610b538185610b03565b9350610b63818560208601610b14565b610b6c816106ba565b840191505092915050565b600060c082019050610b8c6000830189610ae9565b8181036020830152610b9e8188610b3e565b90508181036040830152610bb28187610b3e565b9050610bc160608301866108df565b610bce60808301856108df565b610bdb60a08301846108df565b979650505050505050565b7f54686520646561646c696e652073686f756c642062652061206461746520696e60008201527f20746865206675747572652e0000000000000000000000000000000000000000602082015250565b6000610c42602c83610b03565b9150610c4d82610be6565b604082019050919050565b60006020820190508181036000830152610c7181610c35565b9050919050565b7f4e487b7100000000000000000000000000000000000000000000000000000000600052602260045260246000fd5b60006002820490506001821680610cbf57607f821691505b602082108103610cd257610cd1610c78565b5b50919050565b60008190508160005260206000209050919050565b60006020601f8301049050919050565b600082821b905092915050565b600060088302610d3a7fffffffffffffffffffffffffffffffffffffffffffffffffffffffffffffffff82610cfd565b610d448683610cfd565b95508019841693508086168417925050509392505050565b6000819050919050565b6000610d81610d7c610d77846107f6565b610d5c565b6107f6565b9050919050565b6000819050919050565b610d9b83610d66565b610daf610da782610d88565b848454610d0a565b825550505050565b600090565b610dc4610db7565b610dcf818484610d92565b505050565b5b81811015610df357610de8600082610dbc565b600181019050610dd5565b5050565b601f821115610e3857610e0981610cd8565b610e1284610ced565b81016020851015610e21578190505b610e35610e2d85610ced565b830182610dd4565b50505b505050565b600082821c905092915050565b6000610e5b60001984600802610e3d565b1980831691505092915050565b6000610e748383610e4a565b9150826002028217905092915050565b610e8d82610af8565b67ffffffffffffffff811115610ea657610ea56106cb565b5b610eb08254610ca7565b610ebb828285610df7565b600060209050601f831160018114610eee5760008415610edc578287015190505b610ee68582610e68565b865550610f4e565b601f198416610efc86610cd8565b60005b82811015610f2457848901518255600182019150602085019450602081019050610eff565b86831015610f415784890151610f3d601f891682610e4a565b8355505b6001600288020188555050505b505050505050565b7f4e487b7100000000000000000000000000000000000000000000000000000000600052601160045260246000fd5b6000610f90826107f6565b91507fffffffffffffffffffffffffffffffffffffffffffffffffffffffffffffffff8203610fc257610fc1610f56565b5b600182019050919050565b6000610fd8826107f6565b9150610fe3836107f6565b9250828203905081811115610ffb57610ffa610f56565b5b92915050565b600081905092915050565b50565b600061101c600083611001565b91506110278261100c565b600082019050919050565b600061103d8261100f565b9150819050919050565b6000611052826107f6565b915061105d836107f6565b925082820190508082111561107557611074610f56565b5b9291505056fea2646970667358221220184d22b0c153a1def0c2f92880a1eb11b948c2b52c8e765727504383a915e8b264736f6c63430008120033",
  "linkReferences": {},
  "deployedLinkReferences": {}
}